:020000040800F2
:10000000000400209D010008A5010008A7010008C8
:10001000A9010008AB010008AD01000800000000C4
:10002000000000000000000000000000AF01000818
:10003000B101000800000000B3010008B50100088C
:10004000B7010008B7010008B7010008B7010008B0
:10005000B7010008B7010008B7010008B7010008A0
:10006000B7010008B7010008B7010008B701000890
:10007000B7010008B7010008B7010008B701000880
:10008000B7010008B7010008B7010008B701000870
:10009000B7010008B7010008B7010008B701000860
:1000A000B7010008B7010008B7010008B701000850
:1000B000B7010008B7010008B7010008B701000840
:1000C000B7010008B7010008B7010008B701000830
:1000D000B7010008B7010008B7010008B701000820
:1000E000B7010008B7010008B7010008B701000810
:1000F000B7010008B7010008B7010008B701000800
:10010000B7010008B7010008B7010008B7010008EF
:10011000B7010008B7010008B7010008B7010008DF
:10012000B7010008B7010008B7010008B7010008CF
:10013000B7010008B7010008B7010008B7010008BF
:10014000B7010008B7010008B7010008B7010008AF
:10015000B7010008B7010008B7010008B70100089F
:10016000B7010008B7010008B7010008B70100088F
:10017000B7010008B7010008B7010008000000003F
:10018000B7010008B7010008DFF80CD000F018F83C
:1001900000480047A10200080004002006488047EC
:1001A00006480047FEE7FEE7FEE7FEE7FEE7FEE75C
:1001B000FEE7FEE7FEE7FEE71D02000889010008F2
:1001C000064C074D06E0E06840F0010394E80700A4
:1001D00098471034AC42F6D3FFF7DAFF1803000853
:1001E0002803000801B500BF0098411E00910028B7
:1001F000FAD108BD0748006840F0080005490860CA
:100200004FF0AA40044908600020091D0860091D3C
:100210000860704730380240000C02401448006803
:1002200040F47000124908601248006840F0010074
:100230001049086000200F49083108600D48006827
:100240000D4908400B4908600C48091D0860081F4B
:10025000006820F48020091F0860002005490C3147
:1002600008604FF000600249803908607047000064
:1002700088ED00E000380240FFFFF6FE1030002459
:1002800002E008C8121F08C1002AFAD1704770475F
:10029000002001E001C1121F002AFBD170470000BD
:1002A000FFF7A8FF33E04FF4805019490860194860
:1002B000FFF798FF0020164908601648FFF792FFE5
:1002C0004FF40050124908601248FFF78BFF0020DE
:1002D0000F4908600F48FFF785FF4FF480400C4935
:1002E00008600C48FFF77EFF0020094908600948B4
:1002F000FFF778FF4FF40040054908600548FFF715
:1003000071FF0020024908600248FFF76BFFCAE74F
:10031000140C024000350C002803000800000020E7
:08032000000400009002000837
:040000050800019D51
:00000001FF
