:020000040800F2
:10000000080400209D010008A5010008A7010008C0
:10001000A9010008AB010008AD01000800000000C4
:10002000000000000000000000000000AF01000818
:10003000B101000800000000B3010008B50100088C
:10004000B7010008B7010008B7010008B7010008B0
:10005000B7010008B7010008B7010008B7010008A0
:10006000B7010008B7010008B7010008B701000890
:10007000B7010008B7010008B7010008B701000880
:10008000B7010008B7010008B7010008B701000870
:10009000B7010008B7010008B7010008B701000860
:1000A000B7010008B7010008B7010008B701000850
:1000B000B7010008B7010008B7010008B701000840
:1000C000B7010008B7010008B7010008B701000830
:1000D000B7010008B7010008B7010008B701000820
:1000E000B7010008B7010008B7010008B701000810
:1000F000B7010008B7010008B7010008B701000800
:10010000B7010008B7010008B7010008B7010008EF
:10011000B7010008B7010008B7010008B7010008DF
:10012000B7010008B7010008B7010008B7010008CF
:10013000B7010008B7010008B7010008B7010008BF
:10014000B7010008B7010008B7010008B7010008AF
:10015000B7010008B7010008B7010008B70100089F
:10016000B7010008B7010008B7010008B70100088F
:10017000B7010008B7010008B7010008000000003F
:10018000B7010008B7010008DFF80CD000F018F83C
:100190000048004761030008080400200648804723
:1001A00006480047FEE7FEE7FEE7FEE7FEE7FEE75C
:1001B000FEE7FEE7FEE7FEE7DD0200088901000832
:1001C000064C074D06E0E06840F0010394E80700A4
:1001D00098471034AC42F6D3FFF7DAFFF00300087B
:1001E0001004000801B500BF0098411E00910028CE
:1001F000FAD108BDF0B50A4600210023002400BF53
:100200003DE0012505FA01F3156805EA03049C4267
:1002100034D105684F000326BE40B543056015790B
:100220004E00B5400668354305601579012D02D0B2
:100230001579022D16D185684F000326BE40B543BF
:10024000856055794E00B5408668354385604568C0
:1002500001268E40B5434560456896798E40B6B21A
:1002600035434560C5684F000326BE40B543C560B1
:10027000D5794E00B540C6683543C560491C102984
:10028000BFD3F0BD42694A404261704710B50121B9
:10029000082000F013F84FF4704006490860012070
:1002A0000871002048718871C8710348FFF7A2FFE8
:1002B00010BD000000000020000C024029B1064AD9
:1002C00012680243044B1A6004E0034A1268824336
:1002D000014B1A6070470000303802401448006833
:1002E00040F47000124908601248006840F00100B4
:1002F0001049086000200F49083108600D48006867
:100300000D4908400B4908600C48091D0860081F8A
:10031000006820F48020091F0860002005490C3186
:1003200008604FF0006002498039086070470000A3
:1003300088ED00E000380240FFFFF6FE1030002498
:1003400002E008C8121F08C1002AFAD1704770479E
:10035000002001E001C1121F002AFBD170470000FC
:10036000FFF794FF3FE04FF480511F48FFF78AFFEB
:100370001E48FFF737FF4FF480511B48FFF782FFFD
:100380001A48FFF72FFF4FF400511748FFF77AFF85
:100390001648FFF727FF4FF400511348FFF772FF8D
:1003A0001248FFF71FFF4FF480410F48FFF76AFF25
:1003B0000E48FFF717FF4FF480410B48FFF762FF2D
:1003C0000A48FFF70FFF4FF400410748FFF75AFFB5
:1003D0000648FFF707FF4FF400410348FFF752FFBD
:1003E0000248FFF7FFFEBEE7000C024000350C009C
:1003F000100400080000002008000000400300086E
:100400001804000808000020000400005003000841
:080410000000000000000000E4
:040000050800019D51
:00000001FF
